{
  "contractName": "Transactions",
  "abi": [
    {
      "anonymous": false,
      "inputs": [
        {
          "indexed": false,
          "internalType": "address",
          "name": "from",
          "type": "address"
        },
        {
          "indexed": false,
          "internalType": "address",
          "name": "receiver",
          "type": "address"
        },
        {
          "indexed": false,
          "internalType": "uint256",
          "name": "amount",
          "type": "uint256"
        },
        {
          "indexed": false,
          "internalType": "string",
          "name": "message",
          "type": "string"
        },
        {
          "indexed": false,
          "internalType": "uint256",
          "name": "timestamp",
          "type": "uint256"
        },
        {
          "indexed": false,
          "internalType": "string",
          "name": "keyword",
          "type": "string"
        }
      ],
      "name": "Transfer",
      "type": "event"
    },
    {
      "inputs": [
        {
          "internalType": "address payable",
          "name": "receiver",
          "type": "address"
        },
        {
          "internalType": "uint256",
          "name": "amount",
          "type": "uint256"
        },
        {
          "internalType": "string",
          "name": "message",
          "type": "string"
        },
        {
          "internalType": "string",
          "name": "keyword",
          "type": "string"
        }
      ],
      "name": "addToBlockchain",
      "outputs": [],
      "stateMutability": "nonpayable",
      "type": "function"
    },
    {
      "inputs": [],
      "name": "getAllTransactions",
      "outputs": [
        {
          "components": [
            {
              "internalType": "address",
              "name": "sender",
              "type": "address"
            },
            {
              "internalType": "address",
              "name": "receiver",
              "type": "address"
            },
            {
              "internalType": "uint256",
              "name": "amount",
              "type": "uint256"
            },
            {
              "internalType": "string",
              "name": "message",
              "type": "string"
            },
            {
              "internalType": "uint256",
              "name": "timestamp",
              "type": "uint256"
            },
            {
              "internalType": "string",
              "name": "keyword",
              "type": "string"
            }
          ],
          "internalType": "struct Transactions.TransferStruct[]",
          "name": "",
          "type": "tuple[]"
        }
      ],
      "stateMutability": "view",
      "type": "function",
      "constant": true
    },
    {
      "inputs": [],
      "name": "getAllTransactionCount",
      "outputs": [
        {
          "internalType": "uint256",
          "name": "",
          "type": "uint256"
        }
      ],
      "stateMutability": "view",
      "type": "function",
      "constant": true
    }
  ],
  "bytecode": "0x608060405234801561001057600080fd5b50610c32806100206000396000f3fe608060405234801561001057600080fd5b50600436106100415760003560e01c806327506f53146100465780635e4e252014610064578063cc2d7ead14610082575b600080fd5b61004e61009e565b60405161005b9190610680565b60405180910390f35b61006c6102e1565b60405161007991906106b1565b60405180910390f35b61009c6004803603810190610097919061087f565b6102ea565b005b60606001805480602002602001604051908101604052809291908181526020016000905b828210156102d857838290600052602060002090600602016040518060c00160405290816000820160009054906101000a900473ffffffffffffffffffffffffffffffffffffffff1673ffffffffffffffffffffffffffffffffffffffff1673ffffffffffffffffffffffffffffffffffffffff1681526020016001820160009054906101000a900473ffffffffffffffffffffffffffffffffffffffff1673ffffffffffffffffffffffffffffffffffffffff1673ffffffffffffffffffffffffffffffffffffffff168152602001600282015481526020016003820180546101ab9061094d565b80601f01602080910402602001604051908101604052809291908181526020018280546101d79061094d565b80156102245780601f106101f957610100808354040283529160200191610224565b820191906000526020600020905b81548152906001019060200180831161020757829003601f168201915b50505050508152602001600482015481526020016005820180546102479061094d565b80601f01602080910402602001604051908101604052809291908181526020018280546102739061094d565b80156102c05780601f10610295576101008083540402835291602001916102c0565b820191906000526020600020905b8154815290600101906020018083116102a357829003601f168201915b505050505081525050815260200190600101906100c2565b50505050905090565b60008054905090565b60016040518060c001604052803373ffffffffffffffffffffffffffffffffffffffff1681526020018673ffffffffffffffffffffffffffffffffffffffff16815260200185815260200184815260200142815260200183815250908060018154018082558091505060019003906000526020600020906006020160009091909190915060008201518160000160006101000a81548173ffffffffffffffffffffffffffffffffffffffff021916908373ffffffffffffffffffffffffffffffffffffffff16021790555060208201518160010160006101000a81548173ffffffffffffffffffffffffffffffffffffffff021916908373ffffffffffffffffffffffffffffffffffffffff16021790555060408201518160020155606082015181600301908161041b9190610b2a565b506080820151816004015560a082015181600501908161043b9190610b2a565b50505050505050565b600081519050919050565b600082825260208201905092915050565b6000819050602082019050919050565b600073ffffffffffffffffffffffffffffffffffffffff82169050919050565b600061049b82610470565b9050919050565b6104ab81610490565b82525050565b6000819050919050565b6104c4816104b1565b82525050565b600081519050919050565b600082825260208201905092915050565b60005b838110156105045780820151818401526020810190506104e9565b60008484015250505050565b6000601f19601f8301169050919050565b600061052c826104ca565b61053681856104d5565b93506105468185602086016104e6565b61054f81610510565b840191505092915050565b600060c08301600083015161057260008601826104a2565b50602083015161058560208601826104a2565b50604083015161059860408601826104bb565b50606083015184820360608601526105b08282610521565b91505060808301516105c560808601826104bb565b5060a083015184820360a08601526105dd8282610521565b9150508091505092915050565b60006105f6838361055a565b905092915050565b6000602082019050919050565b600061061682610444565b610620818561044f565b93508360208202850161063285610460565b8060005b8581101561066e578484038952815161064f85826105ea565b945061065a836105fe565b925060208a01995050600181019050610636565b50829750879550505050505092915050565b6000602082019050818103600083015261069a818461060b565b905092915050565b6106ab816104b1565b82525050565b60006020820190506106c660008301846106a2565b92915050565b6000604051905090565b600080fd5b600080fd5b60006106eb82610470565b9050919050565b6106fb816106e0565b811461070657600080fd5b50565b600081359050610718816106f2565b92915050565b610727816104b1565b811461073257600080fd5b50565b6000813590506107448161071e565b92915050565b600080fd5b600080fd5b7f4e487b7100000000000000000000000000000000000000000000000000000000600052604160045260246000fd5b61078c82610510565b810181811067ffffffffffffffff821117156107ab576107aa610754565b5b80604052505050565b60006107be6106cc565b90506107ca8282610783565b919050565b600067ffffffffffffffff8211156107ea576107e9610754565b5b6107f382610510565b9050602081019050919050565b82818337600083830152505050565b600061082261081d846107cf565b6107b4565b90508281526020810184848401111561083e5761083d61074f565b5b610849848285610800565b509392505050565b600082601f8301126108665761086561074a565b5b813561087684826020860161080f565b91505092915050565b60008060008060808587031215610899576108986106d6565b5b60006108a787828801610709565b94505060206108b887828801610735565b935050604085013567ffffffffffffffff8111156108d9576108d86106db565b5b6108e587828801610851565b925050606085013567ffffffffffffffff811115610906576109056106db565b5b61091287828801610851565b91505092959194509250565b7f4e487b7100000000000000000000000000000000000000000000000000000000600052602260045260246000fd5b6000600282049050600182168061096557607f821691505b6020821081036109785761097761091e565b5b50919050565b60008190508160005260206000209050919050565b60006020601f8301049050919050565b600082821b905092915050565b6000600883026109e07fffffffffffffffffffffffffffffffffffffffffffffffffffffffffffffffff826109a3565b6109ea86836109a3565b95508019841693508086168417925050509392505050565b6000819050919050565b6000610a27610a22610a1d846104b1565b610a02565b6104b1565b9050919050565b6000819050919050565b610a4183610a0c565b610a55610a4d82610a2e565b8484546109b0565b825550505050565b600090565b610a6a610a5d565b610a75818484610a38565b505050565b5b81811015610a9957610a8e600082610a62565b600181019050610a7b565b5050565b601f821115610ade57610aaf8161097e565b610ab884610993565b81016020851015610ac7578190505b610adb610ad385610993565b830182610a7a565b50505b505050565b600082821c905092915050565b6000610b0160001984600802610ae3565b1980831691505092915050565b6000610b1a8383610af0565b9150826002028217905092915050565b610b33826104ca565b67ffffffffffffffff811115610b4c57610b4b610754565b5b610b56825461094d565b610b61828285610a9d565b600060209050601f831160018114610b945760008415610b82578287015190505b610b8c8582610b0e565b865550610bf4565b601f198416610ba28661097e565b60005b82811015610bca57848901518255600182019150602085019450602081019050610ba5565b86831015610be75784890151610be3601f891682610af0565b8355505b6001600288020188555050505b50505050505056fea2646970667358221220db21e9cec2adbdc774f3c4c41ff4d133e45f177f4e3d3fb694ae7aa132d29b0364736f6c63430008110033",
  "immutableReferences": {},
  "source": "//SPDX-License-Identifier: UNLICENSED\npragma solidity ^0.8.17;\ncontract Transactions{\n    uint256 transactionCount;\n    event Transfer(address from,address receiver, uint amount, string message,uint256 timestamp,string keyword);\n    struct TransferStruct{\n        address sender;\n        address receiver;\n        uint amount;\n        string message;\n        uint256 timestamp;\n        string keyword;\n\n    }\n    TransferStruct [] transactions;\n    function addToBlockchain (address payable receiver,uint amount,string memory message,string memory keyword)public{\n        //add tx to the block chain\n        transactions.push(TransferStruct(msg.sender,receiver,amount,message,block.timestamp,keyword));\n\n    }\n    function getAllTransactions ()public view returns(TransferStruct[] memory){\n        //get transaction from db\n        return transactions;\n\n    }\n    function getAllTransactionCount()view public returns(uint){\n        //get the tx count\n        return transactionCount;\n\n    }\n}",
  "sourcePath": "C:\\Users\\Engr M2j\\Documents\\Desktop\\All-Solidity-Projects\\KMP\\sm-truffle\\contracts\\Transactions.sol",
  "compiler": {
    "name": "solc",
    "version": "0.8.17+commit.8df45f5f.Emscripten.clang"
  },
  "schemaVersion": "3.4.16",
  "updatedAt": "2023-12-06T16:44:37.811Z",
  "networkType": "ethereum",
  "devdoc": {
    "kind": "dev",
    "methods": {},
    "version": 1
  },
  "userdoc": {
    "kind": "user",
    "methods": {},
    "version": 1
  }
}